{
  "transactions": [
    {
      "hash": "0xa843a3bf028181f67bef3a5a8d81c71c416ccc6dab2cdbb8ef220935328c2702",
      "transactionType": "CALL",
      "contractName": null,
      "contractAddress": "0x8103B0A8A00be2DDC778e6e7eaa21791Cd364625",
      "function": "createSubscription()",
      "arguments": [],
      "transaction": {
        "type": "0x02",
        "from": "0x9cc68505b2fa69a936e032b12c654e5ba8b52bce",
        "to": "0x8103b0a8a00be2ddc778e6e7eaa21791cd364625",
        "gas": "0x1558c",
        "value": "0x0",
        "data": "0xa21a23e4",
        "nonce": "0x49",
        "accessList": []
      },
      "additionalContracts": [],
      "isFixedGasLimit": false
    },
    {
      "hash": "0x91004f859fb4a21104a24de48e42d553adbd54d5ef7768f46a3ba8c09d9d1fad",
      "transactionType": "CALL",
      "contractName": "LinkToken",
      "contractAddress": "0x779877A7B0D9E8603169DdbD7836e478b4624789",
      "function": "transferAndCall(address,uint256,bytes)",
      "arguments": [
        "0x8103B0A8A00be2DDC778e6e7eaa21791Cd364625",
        "3000000000000000000",
        "0x0000000000000000000000000000000000000000000000000000000000002afa"
      ],
      "transaction": {
        "type": "0x02",
        "from": "0x9cc68505b2fa69a936e032b12c654e5ba8b52bce",
        "to": "0x779877a7b0d9e8603169ddbd7836e478b4624789",
        "gas": "0x1b43f",
        "value": "0x0",
        "data": "0x4000aea00000000000000000000000008103b0a8a00be2ddc778e6e7eaa21791cd36462500000000000000000000000000000000000000000000000029a2241af62c0000000000000000000000000000000000000000000000000000000000000000006000000000000000000000000000000000000000000000000000000000000000200000000000000000000000000000000000000000000000000000000000002afa",
        "nonce": "0x4a",
        "accessList": []
      },
      "additionalContracts": [],
      "isFixedGasLimit": false
    },
    {
      "hash": "0xea5728d2079e26f90191bd6873d54cba7784028a0aaba8c747a35957d3814888",
      "transactionType": "CREATE",
      "contractName": "Raffle",
      "contractAddress": "0x5D127cf517ca81e11F903281d8a6F50911C8f39c",
      "function": null,
      "arguments": [
        "10000000000000000",
        "30",
        "0x8103B0A8A00be2DDC778e6e7eaa21791Cd364625",
        "0x474e34a077df58807dbe9c96d3c009b23b3c6d0cce433e59bbf5b34f823bc56c",
        "11002",
        "500000"
      ],
      "transaction": {
        "type": "0x02",
        "from": "0x9cc68505b2fa69a936e032b12c654e5ba8b52bce",
        "gas": "0xde223",
        "value": "0x0",
        "data": "0x61016060405234801561001157600080fd5b50604051610ca9380380610ca983398101604081905261003091610087565b6001600160a01b0393909316608081905260a09590955260c0939093524260005560e093909352610100929092526001600160401b03166101205263ffffffff16610140526002805460ff60a01b19169055610112565b60008060008060008060c087890312156100a057600080fd5b86516020880151604089015191975095506001600160a01b03811681146100c657600080fd5b6060880151608089015191955093506001600160401b03811681146100ea57600080fd5b60a088015190925063ffffffff8116811461010457600080fd5b809150509295509295509295565b60805160a05160c05160e051610100516101205161014051610b30610179600039600061045d01526000610426015260006104000152600061049b0152600061054401526000818160a501526102820152600081816101fe01526102400152610b306000f3fe6080604052600436106100915760003560e01c80633789977011610059578063378997701461013e5780634585e33b14610153578063473f1ddc146101735780636e04ff0d146101a5578063e55ae4e8146101d357600080fd5b806309bc33a7146100965780630ea3df38146100d8578063115cbaf5146100ed5780631fe543e3146101145780632cfcc53914610136575b600080fd5b3480156100a257600080fd5b507f00000000000000000000000000000000000000000000000000000000000000005b6040519081526020015b60405180910390f35b3480156100e457600080fd5b506001546100c5565b3480156100f957600080fd5b50600254600160a01b900460ff166040516100cf91906107e9565b34801561012057600080fd5b5061013461012f366004610858565b6101f3565b005b610134610280565b34801561014a57600080fd5b506000546100c5565b34801561015f57600080fd5b5061013461016e36600461090a565b61036c565b34801561017f57600080fd5b506002546001600160a01b03165b6040516001600160a01b0390911681526020016100cf565b3480156101b157600080fd5b506101c56101c036600461097c565b61053c565b6040516100cf929190610a11565b3480156101df57600080fd5b5061018d6101ee366004610a69565b6105e7565b336001600160a01b037f000000000000000000000000000000000000000000000000000000000000000016146102725760405163073e64fd60e21b81523360048201526001600160a01b037f00000000000000000000000000000000000000000000000000000000000000001660248201526044015b60405180910390fd5b61027c8282610617565b5050565b7f00000000000000000000000000000000000000000000000000000000000000003410156102c15760405163384b5a2b60e11b815260040160405180910390fd5b6000600254600160a01b900460ff1660018111156102e1576102e16107d3565b146102ff5760405163349289c560e21b815260040160405180910390fd5b60018054808201825560009182527fb10e2d527612073b26eecdfd717e6a320cf44b4afac2b0732d9fcbe2b7fa0cf60180546001600160a01b0319163390811790915560405190917f819fbd717c9d0b421352c5116a644ca68ba176960c33f406f08d98a27370ca2791a2565b60006103866040518060200160405280600081525061053c565b509050806103dc57600180546002544792600160a01b90910460ff16908111156103b2576103b26107d3565b604051632c2193d560e11b8152600481019390935260248301919091526044820152606401610269565b60028054600160a01b60ff60a01b199091161790556040516305d3b1d360e41b81527f000000000000000000000000000000000000000000000000000000000000000060048201527f000000000000000000000000000000000000000000000000000000000000000067ffffffffffffffff166024820152600360448201527f000000000000000000000000000000000000000000000000000000000000000063ffffffff166064820152600160848201526000906001600160a01b037f00000000000000000000000000000000000000000000000000000000000000001690635d3b1d309060a4016020604051808303816000875af11580156104e4573d6000803e3d6000fd5b505050506040513d601f19601f820116820180604052508101906105089190610a82565b60405190915081907fcd6e45c8998311cab7e9d4385596cac867e20a0587194b954fa3a731c93ce78b90600090a250505050565b6000606060007f0000000000000000000000000000000000000000000000000000000000000000600054426105719190610a9b565b1190506000600260149054906101000a900460ff166001811115610597576105976107d3565b6001549015915047151590158380156105ad5750825b80156105b65750815b80156105bf5750805b60408051808201909152600381526203078360ec1b6020820152909890975095505050505050565b6000600182815481106105fc576105fc610ac2565b6000918252602090912001546001600160a01b031692915050565b60006001805490508260008151811061063257610632610ac2565b60200260200101516106449190610ad8565b905060006001828154811061065b5761065b610ac2565b600091825260208083209190910154600280546001600160a81b0319166001600160a01b039092169182179055604080519384529183019182905291519192506106a89160019190610759565b504260009081556040516001600160a01b0383169047908381818185875af1925050503d80600081146106f7576040519150601f19603f3d011682016040523d82523d6000602084013e6106fc565b606091505b505090508061071e5760405163a1d04b3960e01b815260040160405180910390fd5b6040516001600160a01b038316907fb112587e57bfa970257f3d54fc52859c6300f6bd7a982462c320fed45c2530ed90600090a25050505050565b8280548282559060005260206000209081019282156107ae579160200282015b828111156107ae57825182546001600160a01b0319166001600160a01b03909116178255602090920191600190910190610779565b506107ba9291506107be565b5090565b5b808211156107ba57600081556001016107bf565b634e487b7160e01b600052602160045260246000fd5b602081016002831061080b57634e487b7160e01b600052602160045260246000fd5b91905290565b634e487b7160e01b600052604160045260246000fd5b604051601f8201601f1916810167ffffffffffffffff8111828210171561085057610850610811565b604052919050565b6000806040838503121561086b57600080fd5b8235915060208084013567ffffffffffffffff8082111561088b57600080fd5b818601915086601f83011261089f57600080fd5b8135818111156108b1576108b1610811565b8060051b91506108c2848301610827565b81815291830184019184810190898411156108dc57600080fd5b938501935b838510156108fa578435825293850193908501906108e1565b8096505050505050509250929050565b6000806020838503121561091d57600080fd5b823567ffffffffffffffff8082111561093557600080fd5b818501915085601f83011261094957600080fd5b81358181111561095857600080fd5b86602082850101111561096a57600080fd5b60209290920196919550909350505050565b6000602080838503121561098f57600080fd5b823567ffffffffffffffff808211156109a757600080fd5b818501915085601f8301126109bb57600080fd5b8135818111156109cd576109cd610811565b6109df601f8201601f19168501610827565b915080825286848285010111156109f557600080fd5b8084840185840137600090820190930192909252509392505050565b821515815260006020604081840152835180604085015260005b81811015610a4757858101830151858201606001528201610a2b565b506000606082860101526060601f19601f830116850101925050509392505050565b600060208284031215610a7b57600080fd5b5035919050565b600060208284031215610a9457600080fd5b5051919050565b81810381811115610abc57634e487b7160e01b600052601160045260246000fd5b92915050565b634e487b7160e01b600052603260045260246000fd5b600082610af557634e487b7160e01b600052601260045260246000fd5b50069056fea2646970667358221220d0bd7e6a15615d9420d2e1d8a5df780503be83e020e903543515966f1fec0d5364736f6c63430008130033000000000000000000000000000000000000000000000000002386f26fc10000000000000000000000000000000000000000000000000000000000000000001e0000000000000000000000008103b0a8a00be2ddc778e6e7eaa21791cd364625474e34a077df58807dbe9c96d3c009b23b3c6d0cce433e59bbf5b34f823bc56c0000000000000000000000000000000000000000000000000000000000002afa000000000000000000000000000000000000000000000000000000000007a120",
        "nonce": "0x4b",
        "accessList": []
      },
      "additionalContracts": [],
      "isFixedGasLimit": false
    },
    {
      "hash": "0xd506c325a33c97df269eedef7441908238ab7ef59567671c946f4260b8490957",
      "transactionType": "CALL",
      "contractName": null,
      "contractAddress": "0x8103B0A8A00be2DDC778e6e7eaa21791Cd364625",
      "function": "addConsumer(uint64,address)",
      "arguments": [
        "11002",
        "0x5D127cf517ca81e11F903281d8a6F50911C8f39c"
      ],
      "transaction": {
        "type": "0x02",
        "from": "0x9cc68505b2fa69a936e032b12c654e5ba8b52bce",
        "to": "0x8103b0a8a00be2ddc778e6e7eaa21791cd364625",
        "gas": "0x21eb0",
        "value": "0x0",
        "data": "0x7341c10c0000000000000000000000000000000000000000000000000000000000002afa0000000000000000000000005d127cf517ca81e11f903281d8a6f50911c8f39c",
        "nonce": "0x4c",
        "accessList": []
      },
      "additionalContracts": [],
      "isFixedGasLimit": false
    }
  ],
  "receipts": [
    {
      "transactionHash": "0xa843a3bf028181f67bef3a5a8d81c71c416ccc6dab2cdbb8ef220935328c2702",
      "transactionIndex": "0x12",
      "blockHash": "0xde8b3c473f96ddb420550e84236dad45dedafa22113312ac857f0d15c044a625",
      "blockNumber": "0x56c75a",
      "from": "0x9cc68505B2fa69a936E032B12c654E5bA8b52bcE",
      "to": "0x8103B0A8A00be2DDC778e6e7eaa21791Cd364625",
      "cumulativeGasUsed": "0xe80b4",
      "gasUsed": "0xe98a",
      "contractAddress": null,
      "logs": [
        {
          "address": "0x8103B0A8A00be2DDC778e6e7eaa21791Cd364625",
          "topics": [
            "0x464722b4166576d3dcbba877b999bc35cf911f4eaf434b7eba68fa113951d0bf",
            "0x0000000000000000000000000000000000000000000000000000000000002afa"
          ],
          "data": "0x0000000000000000000000009cc68505b2fa69a936e032b12c654e5ba8b52bce",
          "blockHash": "0xde8b3c473f96ddb420550e84236dad45dedafa22113312ac857f0d15c044a625",
          "blockNumber": "0x56c75a",
          "transactionHash": "0xa843a3bf028181f67bef3a5a8d81c71c416ccc6dab2cdbb8ef220935328c2702",
          "transactionIndex": "0x12",
          "logIndex": "0x10",
          "removed": false
        }
      ],
      "status": "0x1",
      "logsBloom": "0x0000002000000000000001000000000000000000000000000000000000000000010000000000000000000000000000000000000000000000000000000000000000000000000000000000000000000000000000000000000000000000000000000000000000000000000000000000000000000000000000000000000000000000000000000c000020000000000000000000000000000000000000000000000000000000000000000000000000000008000000000000000000000000000000000000000000000000200000000000000000000000000000000000000000000000000000000000000000000000000800000000000000000000000000000000000000",
      "type": "0x2",
      "effectiveGasPrice": "0xb2d9a454"
    },
    {
      "transactionHash": "0x91004f859fb4a21104a24de48e42d553adbd54d5ef7768f46a3ba8c09d9d1fad",
      "transactionIndex": "0x13",
      "blockHash": "0xde8b3c473f96ddb420550e84236dad45dedafa22113312ac857f0d15c044a625",
      "blockNumber": "0x56c75a",
      "from": "0x9cc68505B2fa69a936E032B12c654E5bA8b52bcE",
      "to": "0x779877A7B0D9E8603169DdbD7836e478b4624789",
      "cumulativeGasUsed": "0xfaafe",
      "gasUsed": "0x12a4a",
      "contractAddress": null,
      "logs": [
        {
          "address": "0x779877A7B0D9E8603169DdbD7836e478b4624789",
          "topics": [
            "0xddf252ad1be2c89b69c2b068fc378daa952ba7f163c4a11628f55a4df523b3ef",
            "0x0000000000000000000000009cc68505b2fa69a936e032b12c654e5ba8b52bce",
            "0x0000000000000000000000008103b0a8a00be2ddc778e6e7eaa21791cd364625"
          ],
          "data": "0x00000000000000000000000000000000000000000000000029a2241af62c0000",
          "blockHash": "0xde8b3c473f96ddb420550e84236dad45dedafa22113312ac857f0d15c044a625",
          "blockNumber": "0x56c75a",
          "transactionHash": "0x91004f859fb4a21104a24de48e42d553adbd54d5ef7768f46a3ba8c09d9d1fad",
          "transactionIndex": "0x13",
          "logIndex": "0x11",
          "removed": false
        },
        {
          "address": "0x779877A7B0D9E8603169DdbD7836e478b4624789",
          "topics": [
            "0xe19260aff97b920c7df27010903aeb9c8d2be5d310a2c67824cf3f15396e4c16",
            "0x0000000000000000000000009cc68505b2fa69a936e032b12c654e5ba8b52bce",
            "0x0000000000000000000000008103b0a8a00be2ddc778e6e7eaa21791cd364625"
          ],
          "data": "0x00000000000000000000000000000000000000000000000029a2241af62c0000000000000000000000000000000000000000000000000000000000000000004000000000000000000000000000000000000000000000000000000000000000200000000000000000000000000000000000000000000000000000000000002afa",
          "blockHash": "0xde8b3c473f96ddb420550e84236dad45dedafa22113312ac857f0d15c044a625",
          "blockNumber": "0x56c75a",
          "transactionHash": "0x91004f859fb4a21104a24de48e42d553adbd54d5ef7768f46a3ba8c09d9d1fad",
          "transactionIndex": "0x13",
          "logIndex": "0x12",
          "removed": false
        },
        {
          "address": "0x8103B0A8A00be2DDC778e6e7eaa21791Cd364625",
          "topics": [
            "0xd39ec07f4e209f627a4c427971473820dc129761ba28de8906bd56f57101d4f8",
            "0x0000000000000000000000000000000000000000000000000000000000002afa"
          ],
          "data": "0x000000000000000000000000000000000000000000000000000000000000000000000000000000000000000000000000000000000000000029a2241af62c0000",
          "blockHash": "0xde8b3c473f96ddb420550e84236dad45dedafa22113312ac857f0d15c044a625",
          "blockNumber": "0x56c75a",
          "transactionHash": "0x91004f859fb4a21104a24de48e42d553adbd54d5ef7768f46a3ba8c09d9d1fad",
          "transactionIndex": "0x13",
          "logIndex": "0x13",
          "removed": false
        }
      ],
      "status": "0x1",
      "logsBloom": "0x0000003400000000000000001000000000000000000000020000000002000000000000000000800000000000000000000000000000000000000000000000000000000000000000000000000800000000000000000000000000002000000000000000000000000000000000000000000000000000400000000000001000000000000000000c000020000000000000800010000020000000000000000000000000000000000000000000000000000008000000000000000000000400000000000000100002000000000000000000000000000000000000000100000000000000000000000000000000000000000800000000000000000000000000000000000000",
      "type": "0x2",
      "effectiveGasPrice": "0xb2d9a454"
    },
    {
      "transactionHash": "0xea5728d2079e26f90191bd6873d54cba7784028a0aaba8c747a35957d3814888",
      "transactionIndex": "0x14",
      "blockHash": "0xde8b3c473f96ddb420550e84236dad45dedafa22113312ac857f0d15c044a625",
      "blockNumber": "0x56c75a",
      "from": "0x9cc68505B2fa69a936E032B12c654E5bA8b52bcE",
      "to": null,
      "cumulativeGasUsed": "0x1a59ca",
      "gasUsed": "0xaaecc",
      "contractAddress": "0x5D127cf517ca81e11F903281d8a6F50911C8f39c",
      "logs": [],
      "status": "0x1",
      "logsBloom": "0x00000000000000000000000000000000000000000000000000000000000000000000000000000000000000000000000000000000000000000000000000000000000000000000000000000000000000000000000000000000000000000000000000000000000000000000000000000000000000000000000000000000000000000000000000000000000000000000000000000000000000000000000000000000000000000000000000000000000000000000000000000000000000000000000000000000000000000000000000000000000000000000000000000000000000000000000000000000000000000000000000000000000000000000000000000000",
      "type": "0x2",
      "effectiveGasPrice": "0xb2d9a454"
    },
    {
      "transactionHash": "0xd506c325a33c97df269eedef7441908238ab7ef59567671c946f4260b8490957",
      "transactionIndex": "0x15",
      "blockHash": "0xde8b3c473f96ddb420550e84236dad45dedafa22113312ac857f0d15c044a625",
      "blockNumber": "0x56c75a",
      "from": "0x9cc68505B2fa69a936E032B12c654E5bA8b52bcE",
      "to": "0x8103B0A8A00be2DDC778e6e7eaa21791Cd364625",
      "cumulativeGasUsed": "0x1bccdc",
      "gasUsed": "0x17312",
      "contractAddress": null,
      "logs": [
        {
          "address": "0x8103B0A8A00be2DDC778e6e7eaa21791Cd364625",
          "topics": [
            "0x43dc749a04ac8fb825cbd514f7c0e13f13bc6f2ee66043b76629d51776cff8e0",
            "0x0000000000000000000000000000000000000000000000000000000000002afa"
          ],
          "data": "0x0000000000000000000000005d127cf517ca81e11f903281d8a6f50911c8f39c",
          "blockHash": "0xde8b3c473f96ddb420550e84236dad45dedafa22113312ac857f0d15c044a625",
          "blockNumber": "0x56c75a",
          "transactionHash": "0xd506c325a33c97df269eedef7441908238ab7ef59567671c946f4260b8490957",
          "transactionIndex": "0x15",
          "logIndex": "0x14",
          "removed": false
        }
      ],
      "status": "0x1",
      "logsBloom": "0x0000002000000000000000000000000000000000000000000000000000000000000000000000000000000000000000000000000000000000000000000000000000000000000000000000000000000000000000000000000000000000000000000000000000008000000000000000000000000000000000000000000000000000000000000c000020000000000000000000000000000000000000000000000000000000000000000000000080000008000000000000000000000000000000000000000000000000000000000000000000000000000000000000020000000000000000000000000000000000000800000000000000000000000000000000000000",
      "type": "0x2",
      "effectiveGasPrice": "0xb2d9a454"
    }
  ],
  "libraries": [],
  "pending": [],
  "returns": {
    "0": {
      "internal_type": "contract Raffle",
      "value": "0x5D127cf517ca81e11F903281d8a6F50911C8f39c"
    },
    "1": {
      "internal_type": "contract HelperConfig",
      "value": "0xC7f2Cf4845C6db0e1a1e91ED41Bcd0FcC1b0E141"
    }
  },
  "timestamp": 1712987789,
  "chain": 11155111,
  "commit": "b9b6bfa"
}